S01200006F32315F6E756D6265722E7372656358
S11300000C9434000C9449000C9449000C9449005D
S11300100C9449000C9449000C9449000C94490038
S11300200C9449000C9449000C9449000C94490028
S11300300C9449000C9449000C9449000C94490018
S11300400C9449000C9449000C9449000C94490008
S11300500C9449000C9449000C9449000C944900F8
S11300600C9449000C94490011241FBECFEFD4E036
S1130070DEBFCDBF11E0A0E0B1E0E6E3F5E002C0F1
S113008005900D92A031B107D9F70E94BB000C94E2
S113009099020C940000E82FEF70F0E0E050FF4F5D
S11300A0908182958F70E82FF0E0E050FF4F8081BF
S11300B084FB332730F9282F21702295207F232BAE
S11300C086FB332730F9330F330F232B85FB33277C
S11300D030F9330F330F330F232B81FB332730F9E0
S11300E03295330F307E232B25B996FB222720F936
S11300F0322F330F330F95FB222720F9220F220FC3
S1130100220F232B392F31703295307F232B28B9BE
S1130110392F3C7091FB222720F9232B9071922BCD
S113012082FB222720F92295220F220F207C922B7A
S113013083FB882780F9879588278795892B8BB936
S1130140089587E880937A0080E480937C00089582
S1130150ECE7F0E09081907F892B8083EAE7F0E080
S1130160808180648083808186FDFDCF80917800CA
S1130170909179000895A8959BE088E10FB6F894D2
S1130180A895809360000FBE909360000E94A10028
S11301908DE384B98CE187B98FEF8AB9C12CD12C56
S11301A07601A89580E00E94A8009695879596957B
S11301B08795BC0180E090E00E949E01A701960112
S11301C00E9402012DEC3CEC4CEC5DE30E942C02FD
S11301D09B01AC01C701B6010E9403016B017C01C4
S11301E020E030E040E05FE30E9403010E946F01E1
S11301F0862F0E944B0083EC99E00197F1F700C031
S11302000000CFCF5058BB27AA270E941A010C9494
S1130210F2010E94E40138F00E94EB0120F039F46D
S11302209F3F19F426F40C94E1010EF4E095E7FBEA
S11302300C94DB01E92F0E94030258F3BA176207FA
S113024073078407950720F079F4A6F50C9425022A
S11302500EF4E0950B2EBA2FA02D0B01B9019001DD
S11302600C01CA01A0011124FF27591B99F0593F21
S113027050F4503E68F11A16F040A22F232F342F69
S11302804427585FF3CF469537952795A795F040B7
S11302905395C9F77EF41F16BA0B620B730B840BCC
S11302A0BAF09150A1F0FF0FBB1F661F771F881F84
S11302B0C2F70EC0BA0F621F731F841F48F48795DC
S11302C077956795B795F7959E3F08F0B0CF9395CE
S11302D0880F08F09927EE0F9795879508950E9447
S11302E00B0288F09F5798F0B92F9927B751B0F0B7
S11302F0E1F0660F771F881F991F1AF0BA95C9F7A6
S113030014C0B13091F00E942502B1E008950C941C
S11303102502672F782F8827B85F39F0B93FCCF3CF
S1130320869577956795B395D9F73EF49095809522
S1130330709561957F4F8F4F9F4F0895E89409C042
S113034097FB3EF490958095709561957F4F8F4F04
S11303509F4F9923A9F0F92F96E9BB279395F6951A
S1130360879577956795B795F111F8CFFAF4BB0F98
S113037011F460FF1BC06F5F7F4F8F4F9F4F16C0FC
S1130380882311F096E911C0772321F09EE8872F86
S1130390762F05C0662371F096E8862F70E060E042
S11303A02AF09A95660F771F881FDAF7880F9695BB
S11303B0879597F9089597F99F6780E870E060E062
S11303C008959FEF80EC089500240A9416161706EA
S11303D018060906089500240A9412161306140632
S11303E005060895092E0394000C11F4882352F095
S11303F0BB0F40F4BF2B11F460FF04C06F5F7F4F4D
S11304008F4F9F4F089557FD9058440F551F59F033
S11304105F3F71F04795880F97FB991F61F09F3FED
S113042079F087950895121613061406551FF2CF16
S11304304695F1DF08C0161617061806991FF1CF66
S113044086957105610508940895E894BB2766278D
S11304507727CB0197F908950E943F020C94F2018B
S11304600E94E40138F00E94EB0120F0952311F082
S11304700C94DB010C94E10111240C9426020E94DB
S1130480030270F3959FC1F3950F50E0551F629FCF
S1130490F001729FBB27F00DB11D639FAA27F00DD9
S11304A0B11DAA1F649F6627B00DA11D661F829F00
S11304B02227B00DA11D621F739FB00DA11D621FE5
S11304C0839FA00D611D221F749F3327A00D611D02
S11304D0231F849F600D211D822F762F6A2F1124E4
S11304E09F5750409AF0F1F088234AF0EE0FFF1F17
S11304F0BB1F661F771F881F91505040A9F79E3F6E
S1130500510580F00C94DB010C9426025F3FE4F368
S1130510983ED4F3869577956795B795F795E795C3
S11305209F5FC1F7FE2B880F911D9695879597F9CC
S10905300895F894FFCFCA
S11305363F065B4F666D7D077F6F777C395E797109
S9030000FC
